{
  "_format": "hh-sol-artifact-1",
  "contractName": "testSwap",
  "sourceName": "contracts/testSwap.sol",
  "abi": [
    {
      "inputs": [
        {
          "internalType": "contract MinimalForwarder",
          "name": "forwarder",
          "type": "address"
        }
      ],
      "stateMutability": "nonpayable",
      "type": "constructor"
    },
    {
      "inputs": [
        {
          "internalType": "address",
          "name": "forwarder",
          "type": "address"
        }
      ],
      "name": "isTrustedForwarder",
      "outputs": [
        {
          "internalType": "bool",
          "name": "",
          "type": "bool"
        }
      ],
      "stateMutability": "view",
      "type": "function"
    },
    {
      "inputs": [],
      "name": "owner",
      "outputs": [
        {
          "internalType": "address payable",
          "name": "",
          "type": "address"
        }
      ],
      "stateMutability": "view",
      "type": "function"
    },
    {
      "inputs": [
        {
          "internalType": "address",
          "name": "_tokenIn",
          "type": "address"
        },
        {
          "internalType": "address",
          "name": "_tokenOut",
          "type": "address"
        },
        {
          "internalType": "uint256",
          "name": "_amountIn",
          "type": "uint256"
        },
        {
          "internalType": "address",
          "name": "_to",
          "type": "address"
        },
        {
          "internalType": "uint256",
          "name": "_deadline",
          "type": "uint256"
        }
      ],
      "name": "swap",
      "outputs": [],
      "stateMutability": "nonpayable",
      "type": "function"
    }
  ],
  "bytecode": "0x60a060405234801561001057600080fd5b50604051610e05380380610e05833981810160405281019061003291906100e3565b808073ffffffffffffffffffffffffffffffffffffffff1660808173ffffffffffffffffffffffffffffffffffffffff16815250505050610110565b600080fd5b600073ffffffffffffffffffffffffffffffffffffffff82169050919050565b600061009e82610073565b9050919050565b60006100b082610093565b9050919050565b6100c0816100a5565b81146100cb57600080fd5b50565b6000815190506100dd816100b7565b92915050565b6000602082840312156100f9576100f861006e565b5b6000610107848285016100ce565b91505092915050565b608051610cda61012b60003960006104db0152610cda6000f3fe608060405234801561001057600080fd5b50600436106100415760003560e01c806317d88f4614610046578063572b6c05146100625780638da5cb5b14610092575b600080fd5b610060600480360381019061005b9190610637565b6100b0565b005b61007c600480360381019061007791906106b2565b6104d7565b60405161008991906106fa565b60405180910390f35b61009a61052f565b6040516100a79190610736565b60405180910390f35b600160009054906101000a900473ffffffffffffffffffffffffffffffffffffffff1673ffffffffffffffffffffffffffffffffffffffff166100f1610555565b73ffffffffffffffffffffffffffffffffffffffff1614610147576040517f08c379a000000000000000000000000000000000000000000000000000000000815260040161013e906107ae565b60405180910390fd5b8473ffffffffffffffffffffffffffffffffffffffff166323b872dd3330866040518463ffffffff1660e01b8152600401610184939291906107ec565b6020604051808303816000875af11580156101a3573d6000803e3d6000fd5b505050506040513d601f19601f820116820180604052508101906101c7919061084f565b508473ffffffffffffffffffffffffffffffffffffffff1663095ea7b3737a250d5630b4cf539739df2c5dacb4c659f2488d856040518363ffffffff1660e01b815260040161021792919061087c565b6020604051808303816000875af1158015610236573d6000803e3d6000fd5b505050506040513d601f19601f8201168201806040525081019061025a919061084f565b506060600267ffffffffffffffff811115610278576102776108a5565b5b6040519080825280602002602001820160405280156102a65781602001602082028036833780820191505090505b50905085816000815181106102be576102bd6108d4565b5b602002602001019073ffffffffffffffffffffffffffffffffffffffff16908173ffffffffffffffffffffffffffffffffffffffff1681525050848160018151811061030d5761030c6108d4565b5b602002602001019073ffffffffffffffffffffffffffffffffffffffff16908173ffffffffffffffffffffffffffffffffffffffff16815250506000737a250d5630b4cf539739df2c5dacb4c659f2488d73ffffffffffffffffffffffffffffffffffffffff1663d06ca61f86846040518363ffffffff1660e01b81526004016103989291906109c1565b600060405180830381865afa1580156103b5573d6000803e3d6000fd5b505050506040513d6000823e3d601f19601f820116820180604052508101906103de9190610b30565b9050737a250d5630b4cf539739df2c5dacb4c659f2488d73ffffffffffffffffffffffffffffffffffffffff166338ed173982600081518110610424576104236108d4565b5b60200260200101516103e86103de85600181518110610446576104456108d4565b5b60200260200101516104589190610ba8565b6104629190610c19565b8588886040518663ffffffff1660e01b8152600401610485959493929190610c4a565b6000604051808303816000875af11580156104a4573d6000803e3d6000fd5b505050506040513d6000823e3d601f19601f820116820180604052508101906104cd9190610b30565b5050505050505050565b60007f000000000000000000000000000000000000000000000000000000000000000073ffffffffffffffffffffffffffffffffffffffff168273ffffffffffffffffffffffffffffffffffffffff16149050919050565b600160009054906101000a900473ffffffffffffffffffffffffffffffffffffffff1681565b6000610560336104d7565b1561057457601436033560601c9050610583565b61057c610587565b9050610584565b5b90565b600033905090565b6000604051905090565b600080fd5b600080fd5b600073ffffffffffffffffffffffffffffffffffffffff82169050919050565b60006105ce826105a3565b9050919050565b6105de816105c3565b81146105e957600080fd5b50565b6000813590506105fb816105d5565b92915050565b6000819050919050565b61061481610601565b811461061f57600080fd5b50565b6000813590506106318161060b565b92915050565b600080600080600060a0868803121561065357610652610599565b5b6000610661888289016105ec565b9550506020610672888289016105ec565b945050604061068388828901610622565b9350506060610694888289016105ec565b92505060806106a588828901610622565b9150509295509295909350565b6000602082840312156106c8576106c7610599565b5b60006106d6848285016105ec565b91505092915050565b60008115159050919050565b6106f4816106df565b82525050565b600060208201905061070f60008301846106eb565b92915050565b6000610720826105a3565b9050919050565b61073081610715565b82525050565b600060208201905061074b6000830184610727565b92915050565b600082825260208201905092915050565b7f4f6e6c79204f776e657200000000000000000000000000000000000000000000600082015250565b6000610798600a83610751565b91506107a382610762565b602082019050919050565b600060208201905081810360008301526107c78161078b565b9050919050565b6107d7816105c3565b82525050565b6107e681610601565b82525050565b600060608201905061080160008301866107ce565b61080e60208301856107ce565b61081b60408301846107dd565b949350505050565b61082c816106df565b811461083757600080fd5b50565b60008151905061084981610823565b92915050565b60006020828403121561086557610864610599565b5b60006108738482850161083a565b91505092915050565b600060408201905061089160008301856107ce565b61089e60208301846107dd565b9392505050565b7f4e487b7100000000000000000000000000000000000000000000000000000000600052604160045260246000fd5b7f4e487b7100000000000000000000000000000000000000000000000000000000600052603260045260246000fd5b600081519050919050565b600082825260208201905092915050565b6000819050602082019050919050565b610938816105c3565b82525050565b600061094a838361092f565b60208301905092915050565b6000602082019050919050565b600061096e82610903565b610978818561090e565b93506109838361091f565b8060005b838110156109b457815161099b888261093e565b97506109a683610956565b925050600181019050610987565b5085935050505092915050565b60006040820190506109d660008301856107dd565b81810360208301526109e88184610963565b90509392505050565b600080fd5b6000601f19601f8301169050919050565b610a10826109f6565b810181811067ffffffffffffffff82111715610a2f57610a2e6108a5565b5b80604052505050565b6000610a4261058f565b9050610a4e8282610a07565b919050565b600067ffffffffffffffff821115610a6e57610a6d6108a5565b5b602082029050602081019050919050565b600080fd5b600081519050610a938161060b565b92915050565b6000610aac610aa784610a53565b610a38565b90508083825260208201905060208402830185811115610acf57610ace610a7f565b5b835b81811015610af85780610ae48882610a84565b845260208401935050602081019050610ad1565b5050509392505050565b600082601f830112610b1757610b166109f1565b5b8151610b27848260208601610a99565b91505092915050565b600060208284031215610b4657610b45610599565b5b600082015167ffffffffffffffff811115610b6457610b6361059e565b5b610b7084828501610b02565b91505092915050565b7f4e487b7100000000000000000000000000000000000000000000000000000000600052601160045260246000fd5b6000610bb382610601565b9150610bbe83610601565b9250828202610bcc81610601565b91508282048414831517610be357610be2610b79565b5b5092915050565b7f4e487b7100000000000000000000000000000000000000000000000000000000600052601260045260246000fd5b6000610c2482610601565b9150610c2f83610601565b925082610c3f57610c3e610bea565b5b828204905092915050565b600060a082019050610c5f60008301886107dd565b610c6c60208301876107dd565b8181036040830152610c7e8186610963565b9050610c8d60608301856107ce565b610c9a60808301846107dd565b969550505050505056fea26469706673582212205057cca3e198cbab448a0ae4e2b08d669016e9006d20156975c2e0dcb0bca7d564736f6c63430008110033",
  "linkReferences": {},
  "deployedLinkReferences": {}
}